{
  "contractName": "Token",
  "abi": [
    {
      "constant": true,
      "inputs": [],
      "name": "name",
      "outputs": [
        {
          "name": "",
          "type": "string"
        }
      ],
      "payable": false,
      "stateMutability": "view",
      "type": "function"
    },
    {
      "constant": false,
      "inputs": [
        {
          "name": "spender",
          "type": "address"
        },
        {
          "name": "value",
          "type": "uint256"
        }
      ],
      "name": "approve",
      "outputs": [
        {
          "name": "",
          "type": "bool"
        }
      ],
      "payable": false,
      "stateMutability": "nonpayable",
      "type": "function"
    },
    {
      "constant": true,
      "inputs": [],
      "name": "totalSupply",
      "outputs": [
        {
          "name": "",
          "type": "uint256"
        }
      ],
      "payable": false,
      "stateMutability": "view",
      "type": "function"
    },
    {
      "constant": false,
      "inputs": [
        {
          "name": "from",
          "type": "address"
        },
        {
          "name": "to",
          "type": "address"
        },
        {
          "name": "value",
          "type": "uint256"
        }
      ],
      "name": "transferFrom",
      "outputs": [
        {
          "name": "",
          "type": "bool"
        }
      ],
      "payable": false,
      "stateMutability": "nonpayable",
      "type": "function"
    },
    {
      "constant": true,
      "inputs": [],
      "name": "decimals",
      "outputs": [
        {
          "name": "",
          "type": "uint8"
        }
      ],
      "payable": false,
      "stateMutability": "view",
      "type": "function"
    },
    {
      "constant": false,
      "inputs": [
        {
          "name": "spender",
          "type": "address"
        },
        {
          "name": "addedValue",
          "type": "uint256"
        }
      ],
      "name": "increaseAllowance",
      "outputs": [
        {
          "name": "",
          "type": "bool"
        }
      ],
      "payable": false,
      "stateMutability": "nonpayable",
      "type": "function"
    },
    {
      "constant": false,
      "inputs": [],
      "name": "unpause",
      "outputs": [],
      "payable": false,
      "stateMutability": "nonpayable",
      "type": "function"
    },
    {
      "constant": true,
      "inputs": [
        {
          "name": "account",
          "type": "address"
        }
      ],
      "name": "isPauser",
      "outputs": [
        {
          "name": "",
          "type": "bool"
        }
      ],
      "payable": false,
      "stateMutability": "view",
      "type": "function"
    },
    {
      "constant": true,
      "inputs": [],
      "name": "paused",
      "outputs": [
        {
          "name": "",
          "type": "bool"
        }
      ],
      "payable": false,
      "stateMutability": "view",
      "type": "function"
    },
    {
      "constant": false,
      "inputs": [],
      "name": "renouncePauser",
      "outputs": [],
      "payable": false,
      "stateMutability": "nonpayable",
      "type": "function"
    },
    {
      "constant": true,
      "inputs": [
        {
          "name": "account",
          "type": "address"
        }
      ],
      "name": "balanceOf",
      "outputs": [
        {
          "name": "",
          "type": "uint256"
        }
      ],
      "payable": false,
      "stateMutability": "view",
      "type": "function"
    },
    {
      "constant": false,
      "inputs": [
        {
          "name": "account",
          "type": "address"
        }
      ],
      "name": "addPauser",
      "outputs": [],
      "payable": false,
      "stateMutability": "nonpayable",
      "type": "function"
    },
    {
      "constant": false,
      "inputs": [],
      "name": "pause",
      "outputs": [],
      "payable": false,
      "stateMutability": "nonpayable",
      "type": "function"
    },
    {
      "constant": true,
      "inputs": [],
      "name": "symbol",
      "outputs": [
        {
          "name": "",
          "type": "string"
        }
      ],
      "payable": false,
      "stateMutability": "view",
      "type": "function"
    },
    {
      "constant": false,
      "inputs": [
        {
          "name": "spender",
          "type": "address"
        },
        {
          "name": "subtractedValue",
          "type": "uint256"
        }
      ],
      "name": "decreaseAllowance",
      "outputs": [
        {
          "name": "",
          "type": "bool"
        }
      ],
      "payable": false,
      "stateMutability": "nonpayable",
      "type": "function"
    },
    {
      "constant": false,
      "inputs": [
        {
          "name": "to",
          "type": "address"
        },
        {
          "name": "value",
          "type": "uint256"
        }
      ],
      "name": "transfer",
      "outputs": [
        {
          "name": "",
          "type": "bool"
        }
      ],
      "payable": false,
      "stateMutability": "nonpayable",
      "type": "function"
    },
    {
      "constant": true,
      "inputs": [
        {
          "name": "owner",
          "type": "address"
        },
        {
          "name": "spender",
          "type": "address"
        }
      ],
      "name": "allowance",
      "outputs": [
        {
          "name": "",
          "type": "uint256"
        }
      ],
      "payable": false,
      "stateMutability": "view",
      "type": "function"
    },
    {
      "inputs": [
        {
          "name": "_contractOwner",
          "type": "address"
        },
        {
          "name": "_reserveHolder",
          "type": "address"
        }
      ],
      "payable": false,
      "stateMutability": "nonpayable",
      "type": "constructor"
    },
    {
      "anonymous": false,
      "inputs": [
        {
          "indexed": false,
          "name": "account",
          "type": "address"
        }
      ],
      "name": "Paused",
      "type": "event"
    },
    {
      "anonymous": false,
      "inputs": [
        {
          "indexed": false,
          "name": "account",
          "type": "address"
        }
      ],
      "name": "Unpaused",
      "type": "event"
    },
    {
      "anonymous": false,
      "inputs": [
        {
          "indexed": true,
          "name": "account",
          "type": "address"
        }
      ],
      "name": "PauserAdded",
      "type": "event"
    },
    {
      "anonymous": false,
      "inputs": [
        {
          "indexed": true,
          "name": "account",
          "type": "address"
        }
      ],
      "name": "PauserRemoved",
      "type": "event"
    },
    {
      "anonymous": false,
      "inputs": [
        {
          "indexed": true,
          "name": "from",
          "type": "address"
        },
        {
          "indexed": true,
          "name": "to",
          "type": "address"
        },
        {
          "indexed": false,
          "name": "value",
          "type": "uint256"
        }
      ],
      "name": "Transfer",
      "type": "event"
    },
    {
      "anonymous": false,
      "inputs": [
        {
          "indexed": true,
          "name": "owner",
          "type": "address"
        },
        {
          "indexed": true,
          "name": "spender",
          "type": "address"
        },
        {
          "indexed": false,
          "name": "value",
          "type": "uint256"
        }
      ],
      "name": "Approval",
      "type": "event"
    },
    {
      "constant": false,
      "inputs": [
        {
          "name": "ownerAddr",
          "type": "address"
        }
      ],
      "name": "setOwner",
      "outputs": [],
      "payable": false,
      "stateMutability": "nonpayable",
      "type": "function"
    },
    {
      "constant": true,
      "inputs": [],
      "name": "owner",
      "outputs": [
        {
          "name": "",
          "type": "address"
        }
      ],
      "payable": false,
      "stateMutability": "view",
      "type": "function"
    },
    {
      "constant": false,
      "inputs": [
        {
          "name": "amount",
          "type": "uint256"
        }
      ],
      "name": "burn",
      "outputs": [],
      "payable": false,
      "stateMutability": "nonpayable",
      "type": "function"
    },
    {
      "constant": false,
      "inputs": [
        {
          "name": "account",
          "type": "address"
        },
        {
          "name": "amount",
          "type": "uint256"
        }
      ],
      "name": "burnFrom",
      "outputs": [],
      "payable": false,
      "stateMutability": "nonpayable",
      "type": "function"
    }
  ],
  "bytecode": "0x60806040523480156200001157600080fd5b5060405160408062001c99833981018060405260408110156200003357600080fd5b508051602091820151604080518082018252600b81527f426563617a20546f6b656e000000000000000000000000000000000000000000818601908152825180840190935260038084527f42435a0000000000000000000000000000000000000000000000000000000000968401969096528151949593949193601292620000bc9290620005d5565b508151620000d2906004906020850190620005d5565b506005805460ff191660ff9290921691909117905550620000fe9050336401000000006200019d810204565b60078054600160a860020a031916610100600160a060020a03858116820292909217928390556b01750ef6fd5306a2a3000000926b01320e8c30e42f72b200000092620001589290910416640100000000620001ef810204565b6007546200017e906101009004600160a060020a031683640100000000620002ae810204565b620001938382640100000000620002ae810204565b505050506200067a565b620001b86006826401000000006200153f620003cf82021704565b604051600160a060020a038216907f6719d08c1888103bea251a4ed56406bd0c3e69723c8a1686e017e7bbe159b6f890600090a250565b620002033364010000000062000476810204565b15156200029757604080517f08c379a000000000000000000000000000000000000000000000000000000000815260206004820152603060248201527f506175736572526f6c653a2063616c6c657220646f6573206e6f74206861766560448201527f207468652050617573657220726f6c6500000000000000000000000000000000606482015290519081900360840190fd5b620002ab816401000000006200019d810204565b50565b600160a060020a03821615156200032657604080517f08c379a000000000000000000000000000000000000000000000000000000000815260206004820152601f60248201527f45524332303a206d696e7420746f20746865207a65726f206164647265737300604482015290519081900360640190fd5b600254620003439082640100000000620013836200049982021704565b600255600160a060020a038216600090815260208190526040902054620003799082640100000000620013836200049982021704565b600160a060020a0383166000818152602081815260408083209490945583518581529351929391927fddf252ad1be2c89b69c2b068fc378daa952ba7f163c4a11628f55a4df523b3ef9281900390910190a35050565b620003e4828264010000000062000515810204565b156200045157604080517f08c379a000000000000000000000000000000000000000000000000000000000815260206004820152601f60248201527f526f6c65733a206163636f756e7420616c72656164792068617320726f6c6500604482015290519081900360640190fd5b600160a060020a0316600090815260209190915260409020805460ff19166001179055565b60006200049360068364010000000062000e076200051582021704565b92915050565b6000828201838110156200050e57604080517f08c379a000000000000000000000000000000000000000000000000000000000815260206004820152601b60248201527f536166654d6174683a206164646974696f6e206f766572666c6f770000000000604482015290519081900360640190fd5b9392505050565b6000600160a060020a0382161515620005b557604080517f08c379a000000000000000000000000000000000000000000000000000000000815260206004820152602260248201527f526f6c65733a206163636f756e7420697320746865207a65726f20616464726560448201527f7373000000000000000000000000000000000000000000000000000000000000606482015290519081900360840190fd5b50600160a060020a03166000908152602091909152604090205460ff1690565b828054600181600116156101000203166002900490600052602060002090601f016020900481019282601f106200061857805160ff191683800117855562000648565b8280016001018555821562000648579182015b82811115620006485782518255916020019190600101906200062b565b50620006569291506200065a565b5090565b6200067791905b8082111562000656576000815560010162000661565b90565b61160f806200068a6000396000f3fe608060405260043610610116577c0100000000000000000000000000000000000000000000000000000000600035046306fdde03811461011b578063095ea7b3146101a557806313af4035146101f257806318160ddd1461022757806323b872dd1461024e578063313ce5671461029157806339509351146102bc5780633f4ba83a146102f557806342966c681461030a57806346fbf68e146103345780635c975abb146103675780636ef8d66d1461037c57806370a082311461039157806379cc6790146103c457806382dc1ec4146103fd5780638456cb59146104305780638da5cb5b1461044557806395d89b4114610476578063a457c2d71461048b578063a9059cbb146104c4578063dd62ed3e146104fd575b600080fd5b34801561012757600080fd5b50610130610538565b6040805160208082528351818301528351919283929083019185019080838360005b8381101561016a578181015183820152602001610152565b50505050905090810190601f1680156101975780820380516001836020036101000a031916815260200191505b509250505060405180910390f35b3480156101b157600080fd5b506101de600480360360408110156101c857600080fd5b50600160a060020a0381351690602001356105ce565b604080519115158252519081900360200190f35b3480156101fe57600080fd5b506102256004803603602081101561021557600080fd5b5035600160a060020a031661062b565b005b34801561023357600080fd5b5061023c61074a565b60408051918252519081900360200190f35b34801561025a57600080fd5b506101de6004803603606081101561027157600080fd5b50600160a060020a03813581169160208101359091169060400135610750565b34801561029d57600080fd5b506102a66107af565b6040805160ff9092168252519081900360200190f35b3480156102c857600080fd5b506101de600480360360408110156102df57600080fd5b50600160a060020a0381351690602001356107b8565b34801561030157600080fd5b5061022561080e565b34801561031657600080fd5b506102256004803603602081101561032d57600080fd5b503561092e565b34801561034057600080fd5b506101de6004803603602081101561035757600080fd5b5035600160a060020a0316610983565b34801561037357600080fd5b506101de61099c565b34801561038857600080fd5b506102256109a5565b34801561039d57600080fd5b5061023c600480360360208110156103b457600080fd5b5035600160a060020a03166109b0565b3480156103d057600080fd5b50610225600480360360408110156103e757600080fd5b50600160a060020a0381351690602001356109cb565b34801561040957600080fd5b506102256004803603602081101561042057600080fd5b5035600160a060020a0316610a22565b34801561043c57600080fd5b50610225610ab0565b34801561045157600080fd5b5061045a610bc0565b60408051600160a060020a039092168252519081900360200190f35b34801561048257600080fd5b50610130610bd4565b34801561049757600080fd5b506101de600480360360408110156104ae57600080fd5b50600160a060020a038135169060200135610c35565b3480156104d057600080fd5b506101de600480360360408110156104e757600080fd5b50600160a060020a038135169060200135610c8b565b34801561050957600080fd5b5061023c6004803603604081101561052057600080fd5b50600160a060020a0381358116916020013516610ce1565b60038054604080516020601f60026000196101006001881615020190951694909404938401819004810282018101909252828152606093909290918301828280156105c45780601f10610599576101008083540402835291602001916105c4565b820191906000526020600020905b8154815290600101906020018083116105a757829003601f168201915b5050505050905090565b60075460009060ff161561061a576040805160e560020a62461bcd02815260206004820152601060248201526000805160206115c4833981519152604482015290519081900360640190fd5b6106248383610d0c565b9392505050565b6007546101009004600160a060020a03163314610692576040805160e560020a62461bcd02815260206004820152600960248201527f4e4f545f4f574e45520000000000000000000000000000000000000000000000604482015290519081900360640190fd5b600160a060020a03811615156106f2576040805160e560020a62461bcd02815260206004820152600960248201527f5a45524f5f414444520000000000000000000000000000000000000000000000604482015290519081900360640190fd5b6106fb81610a22565b600754610715906101009004600160a060020a0316610d22565b60078054600160a060020a039092166101000274ffffffffffffffffffffffffffffffffffffffff0019909216919091179055565b60025490565b60075460009060ff161561079c576040805160e560020a62461bcd02815260206004820152601060248201526000805160206115c4833981519152604482015290519081900360640190fd5b6107a7848484610d6a565b949350505050565b60055460ff1690565b60075460009060ff1615610804576040805160e560020a62461bcd02815260206004820152601060248201526000805160206115c4833981519152604482015290519081900360640190fd5b6106248383610dc1565b61081733610983565b1515610893576040805160e560020a62461bcd02815260206004820152603060248201527f506175736572526f6c653a2063616c6c657220646f6573206e6f74206861766560448201527f207468652050617573657220726f6c6500000000000000000000000000000000606482015290519081900360840190fd5b60075460ff1615156108ef576040805160e560020a62461bcd02815260206004820152601460248201527f5061757361626c653a206e6f7420706175736564000000000000000000000000604482015290519081900360640190fd5b6007805460ff191690556040805133815290517f5db9ee0a495bf2e6ff9c91a7834c1ba4fdd244a5e8aa4e537bd38aeae4b073aa9181900360200190a1565b60075460ff1615610977576040805160e560020a62461bcd02815260206004820152601060248201526000805160206115c4833981519152604482015290519081900360640190fd5b61098081610dfd565b50565b600061099660068363ffffffff610e0716565b92915050565b60075460ff1690565b6109ae33610d22565b565b600160a060020a031660009081526020819052604090205490565b60075460ff1615610a14576040805160e560020a62461bcd02815260206004820152601060248201526000805160206115c4833981519152604482015290519081900360640190fd5b610a1e8282610eaf565b5050565b610a2b33610983565b1515610aa7576040805160e560020a62461bcd02815260206004820152603060248201527f506175736572526f6c653a2063616c6c657220646f6573206e6f74206861766560448201527f207468652050617573657220726f6c6500000000000000000000000000000000606482015290519081900360840190fd5b61098081610eb9565b610ab933610983565b1515610b35576040805160e560020a62461bcd02815260206004820152603060248201527f506175736572526f6c653a2063616c6c657220646f6573206e6f74206861766560448201527f207468652050617573657220726f6c6500000000000000000000000000000000606482015290519081900360840190fd5b60075460ff1615610b7e576040805160e560020a62461bcd02815260206004820152601060248201526000805160206115c4833981519152604482015290519081900360640190fd5b6007805460ff191660011790556040805133815290517f62e78cea01bee320cd4e420270b5ea74000d11b0c9f74754ebdbfc544b05a2589181900360200190a1565b6007546101009004600160a060020a031690565b60048054604080516020601f60026000196101006001881615020190951694909404938401819004810282018101909252828152606093909290918301828280156105c45780601f10610599576101008083540402835291602001916105c4565b60075460009060ff1615610c81576040805160e560020a62461bcd02815260206004820152601060248201526000805160206115c4833981519152604482015290519081900360640190fd5b6106248383610f01565b60075460009060ff1615610cd7576040805160e560020a62461bcd02815260206004820152601060248201526000805160206115c4833981519152604482015290519081900360640190fd5b6106248383610f3d565b600160a060020a03918216600090815260016020908152604080832093909416825291909152205490565b6000610d19338484610f4a565b50600192915050565b610d3360068263ffffffff6110b716565b604051600160a060020a038216907fcd265ebaf09df2871cc7bd4133404a235ba12eff2041bb89d9c714a2621c7c7e90600090a250565b6000610d7784848461115f565b600160a060020a038416600090815260016020908152604080832033808552925290912054610db7918691610db2908663ffffffff61132316565b610f4a565b5060019392505050565b336000818152600160209081526040808320600160a060020a03871684529091528120549091610d19918590610db2908663ffffffff61138316565b61098033826113e0565b6000600160a060020a0382161515610e8f576040805160e560020a62461bcd02815260206004820152602260248201527f526f6c65733a206163636f756e7420697320746865207a65726f20616464726560448201527f7373000000000000000000000000000000000000000000000000000000000000606482015290519081900360840190fd5b50600160a060020a03166000908152602091909152604090205460ff1690565b610a1e82826114fa565b610eca60068263ffffffff61153f16565b604051600160a060020a038216907f6719d08c1888103bea251a4ed56406bd0c3e69723c8a1686e017e7bbe159b6f890600090a250565b336000818152600160209081526040808320600160a060020a03871684529091528120549091610d19918590610db2908663ffffffff61132316565b6000610d1933848461115f565b600160a060020a0383161515610fcf576040805160e560020a62461bcd028152602060048201526024808201527f45524332303a20617070726f76652066726f6d20746865207a65726f2061646460448201527f7265737300000000000000000000000000000000000000000000000000000000606482015290519081900360840190fd5b600160a060020a0382161515611055576040805160e560020a62461bcd02815260206004820152602260248201527f45524332303a20617070726f766520746f20746865207a65726f20616464726560448201527f7373000000000000000000000000000000000000000000000000000000000000606482015290519081900360840190fd5b600160a060020a03808416600081815260016020908152604080832094871680845294825291829020859055815185815291517f8c5be1e5ebec7d5bd14f71427d1e84f3dd0314c0f7b2291e5b200ac8c7c3b9259281900390910190a3505050565b6110c18282610e07565b151561113d576040805160e560020a62461bcd02815260206004820152602160248201527f526f6c65733a206163636f756e7420646f6573206e6f74206861766520726f6c60448201527f6500000000000000000000000000000000000000000000000000000000000000606482015290519081900360840190fd5b600160a060020a0316600090815260209190915260409020805460ff19169055565b600160a060020a03831615156111e5576040805160e560020a62461bcd02815260206004820152602560248201527f45524332303a207472616e736665722066726f6d20746865207a65726f20616460448201527f6472657373000000000000000000000000000000000000000000000000000000606482015290519081900360840190fd5b600160a060020a038216151561126b576040805160e560020a62461bcd02815260206004820152602360248201527f45524332303a207472616e7366657220746f20746865207a65726f206164647260448201527f6573730000000000000000000000000000000000000000000000000000000000606482015290519081900360840190fd5b600160a060020a038316600090815260208190526040902054611294908263ffffffff61132316565b600160a060020a0380851660009081526020819052604080822093909355908416815220546112c9908263ffffffff61138316565b600160a060020a038084166000818152602081815260409182902094909455805185815290519193928716927fddf252ad1be2c89b69c2b068fc378daa952ba7f163c4a11628f55a4df523b3ef92918290030190a3505050565b60008282111561137d576040805160e560020a62461bcd02815260206004820152601e60248201527f536166654d6174683a207375627472616374696f6e206f766572666c6f770000604482015290519081900360640190fd5b50900390565b600082820183811015610624576040805160e560020a62461bcd02815260206004820152601b60248201527f536166654d6174683a206164646974696f6e206f766572666c6f770000000000604482015290519081900360640190fd5b600160a060020a0382161515611466576040805160e560020a62461bcd02815260206004820152602160248201527f45524332303a206275726e2066726f6d20746865207a65726f2061646472657360448201527f7300000000000000000000000000000000000000000000000000000000000000606482015290519081900360840190fd5b600254611479908263ffffffff61132316565b600255600160a060020a0382166000908152602081905260409020546114a5908263ffffffff61132316565b600160a060020a038316600081815260208181526040808320949094558351858152935191937fddf252ad1be2c89b69c2b068fc378daa952ba7f163c4a11628f55a4df523b3ef929081900390910190a35050565b61150482826113e0565b600160a060020a038216600090815260016020908152604080832033808552925290912054610a1e918491610db2908563ffffffff61132316565b6115498282610e07565b1561159e576040805160e560020a62461bcd02815260206004820152601f60248201527f526f6c65733a206163636f756e7420616c72656164792068617320726f6c6500604482015290519081900360640190fd5b600160a060020a0316600090815260209190915260409020805460ff1916600117905556fe5061757361626c653a2070617573656400000000000000000000000000000000a165627a7a72305820e4749af3656ffd66b53bbfe4d68d4ab544a8a605a80a7a9458eb524f2394749a0029",
  "source": "pragma solidity >=0.4.21 <0.6.0;\n\nimport \"@openzeppelin/contracts/token/ERC20/ERC20.sol\";\nimport \"@openzeppelin/contracts/token/ERC20/ERC20Detailed.sol\";\nimport \"@openzeppelin/contracts/token/ERC20/ERC20Burnable.sol\";\nimport \"@openzeppelin/contracts/token/ERC20/ERC20Pausable.sol\";\n\n\ncontract Token is ERC20, ERC20Burnable, ERC20Detailed, ERC20Pausable {\n\n  address private _owner;\n\n  constructor(address _contractOwner, address _reserveHolder) ERC20Detailed('Becaz Token', 'BCZ', 18)\n  public{\n    uint256 _circulatingSupply = 451*(10**24);\n    uint256 _reservedSupply = 370*(10**24);\n\n    _owner = _contractOwner;\n    addPauser(_owner);\n\n    _mint(_owner, _circulatingSupply);\n    _mint(_reserveHolder, _reservedSupply);\n  }\n\n\n  function setOwner(address ownerAddr) public\n  {\n    require(_owner == msg.sender, \"NOT_OWNER\");\n    require(ownerAddr != address(0), \"ZERO_ADDR\");\n\n    addPauser(ownerAddr);    \n    _removePauser(_owner);\n\n    _owner = ownerAddr;\n  }\n\n  function owner() public view returns(address)\n  {\n    return _owner;\n  }\n\n  function burn(uint256 amount) public whenNotPaused {\n    super.burn(amount);\n  }\n\n  function burnFrom(address account, uint256 amount) public whenNotPaused {\n    super.burnFrom(account, amount);\n  }\n}\n",
  "sourcePath": "/projects/SmartContracts/ERC20/contracts/Token.sol",
  "compiler": {
    "name": "solc",
    "version": "0.5.1+commit.c8a2cb62.Emscripten.clang"
  },
  "schemaVersion": "3.0.16",
  "updatedAt": "2020-01-07T18:38:46.381Z",
  "devdoc": {
    "methods": {
      "allowance(address,address)": {
        "details": "See `IERC20.allowance`."
      },
      "balanceOf(address)": {
        "details": "See `IERC20.balanceOf`."
      },
      "decimals()": {
        "details": "Returns the number of decimals used to get its user representation. For example, if `decimals` equals `2`, a balance of `505` tokens should be displayed to a user as `5,05` (`505 / 10 ** 2`).     * Tokens usually opt for a value of 18, imitating the relationship between Ether and Wei.     * > Note that this information is only used for _display_ purposes: it in no way affects any of the arithmetic of the contract, including `IERC20.balanceOf` and `IERC20.transfer`."
      },
      "name()": {
        "details": "Returns the name of the token."
      },
      "pause()": {
        "details": "Called by a pauser to pause, triggers stopped state."
      },
      "paused()": {
        "details": "Returns true if the contract is paused, and false otherwise."
      },
      "symbol()": {
        "details": "Returns the symbol of the token, usually a shorter version of the name."
      },
      "totalSupply()": {
        "details": "See `IERC20.totalSupply`."
      },
      "unpause()": {
        "details": "Called by a pauser to unpause, returns to normal state."
      }
    }
  },
  "userdoc": {
    "methods": {}
  }
}