{
  "contractName": "Token",
  "abi": [
    {
      "constant": true,
      "inputs": [],
      "name": "name",
      "outputs": [
        {
          "name": "",
          "type": "string"
        }
      ],
      "payable": false,
      "stateMutability": "view",
      "type": "function"
    },
    {
      "constant": false,
      "inputs": [
        {
          "name": "spender",
          "type": "address"
        },
        {
          "name": "value",
          "type": "uint256"
        }
      ],
      "name": "approve",
      "outputs": [
        {
          "name": "",
          "type": "bool"
        }
      ],
      "payable": false,
      "stateMutability": "nonpayable",
      "type": "function"
    },
    {
      "constant": true,
      "inputs": [],
      "name": "totalSupply",
      "outputs": [
        {
          "name": "",
          "type": "uint256"
        }
      ],
      "payable": false,
      "stateMutability": "view",
      "type": "function"
    },
    {
      "constant": false,
      "inputs": [
        {
          "name": "from",
          "type": "address"
        },
        {
          "name": "to",
          "type": "address"
        },
        {
          "name": "value",
          "type": "uint256"
        }
      ],
      "name": "transferFrom",
      "outputs": [
        {
          "name": "",
          "type": "bool"
        }
      ],
      "payable": false,
      "stateMutability": "nonpayable",
      "type": "function"
    },
    {
      "constant": true,
      "inputs": [],
      "name": "decimals",
      "outputs": [
        {
          "name": "",
          "type": "uint8"
        }
      ],
      "payable": false,
      "stateMutability": "view",
      "type": "function"
    },
    {
      "constant": false,
      "inputs": [
        {
          "name": "spender",
          "type": "address"
        },
        {
          "name": "addedValue",
          "type": "uint256"
        }
      ],
      "name": "increaseAllowance",
      "outputs": [
        {
          "name": "",
          "type": "bool"
        }
      ],
      "payable": false,
      "stateMutability": "nonpayable",
      "type": "function"
    },
    {
      "constant": false,
      "inputs": [],
      "name": "unpause",
      "outputs": [],
      "payable": false,
      "stateMutability": "nonpayable",
      "type": "function"
    },
    {
      "constant": true,
      "inputs": [
        {
          "name": "account",
          "type": "address"
        }
      ],
      "name": "isPauser",
      "outputs": [
        {
          "name": "",
          "type": "bool"
        }
      ],
      "payable": false,
      "stateMutability": "view",
      "type": "function"
    },
    {
      "constant": true,
      "inputs": [],
      "name": "paused",
      "outputs": [
        {
          "name": "",
          "type": "bool"
        }
      ],
      "payable": false,
      "stateMutability": "view",
      "type": "function"
    },
    {
      "constant": false,
      "inputs": [],
      "name": "renouncePauser",
      "outputs": [],
      "payable": false,
      "stateMutability": "nonpayable",
      "type": "function"
    },
    {
      "constant": true,
      "inputs": [
        {
          "name": "account",
          "type": "address"
        }
      ],
      "name": "balanceOf",
      "outputs": [
        {
          "name": "",
          "type": "uint256"
        }
      ],
      "payable": false,
      "stateMutability": "view",
      "type": "function"
    },
    {
      "constant": false,
      "inputs": [
        {
          "name": "account",
          "type": "address"
        }
      ],
      "name": "addPauser",
      "outputs": [],
      "payable": false,
      "stateMutability": "nonpayable",
      "type": "function"
    },
    {
      "constant": false,
      "inputs": [],
      "name": "pause",
      "outputs": [],
      "payable": false,
      "stateMutability": "nonpayable",
      "type": "function"
    },
    {
      "constant": true,
      "inputs": [],
      "name": "symbol",
      "outputs": [
        {
          "name": "",
          "type": "string"
        }
      ],
      "payable": false,
      "stateMutability": "view",
      "type": "function"
    },
    {
      "constant": false,
      "inputs": [
        {
          "name": "spender",
          "type": "address"
        },
        {
          "name": "subtractedValue",
          "type": "uint256"
        }
      ],
      "name": "decreaseAllowance",
      "outputs": [
        {
          "name": "",
          "type": "bool"
        }
      ],
      "payable": false,
      "stateMutability": "nonpayable",
      "type": "function"
    },
    {
      "constant": false,
      "inputs": [
        {
          "name": "to",
          "type": "address"
        },
        {
          "name": "value",
          "type": "uint256"
        }
      ],
      "name": "transfer",
      "outputs": [
        {
          "name": "",
          "type": "bool"
        }
      ],
      "payable": false,
      "stateMutability": "nonpayable",
      "type": "function"
    },
    {
      "constant": true,
      "inputs": [
        {
          "name": "owner",
          "type": "address"
        },
        {
          "name": "spender",
          "type": "address"
        }
      ],
      "name": "allowance",
      "outputs": [
        {
          "name": "",
          "type": "uint256"
        }
      ],
      "payable": false,
      "stateMutability": "view",
      "type": "function"
    },
    {
      "inputs": [
        {
          "name": "_contractOwner",
          "type": "address"
        },
        {
          "name": "_reserveHolder",
          "type": "address"
        }
      ],
      "payable": false,
      "stateMutability": "nonpayable",
      "type": "constructor"
    },
    {
      "anonymous": false,
      "inputs": [
        {
          "indexed": false,
          "name": "account",
          "type": "address"
        }
      ],
      "name": "Paused",
      "type": "event"
    },
    {
      "anonymous": false,
      "inputs": [
        {
          "indexed": false,
          "name": "account",
          "type": "address"
        }
      ],
      "name": "Unpaused",
      "type": "event"
    },
    {
      "anonymous": false,
      "inputs": [
        {
          "indexed": true,
          "name": "account",
          "type": "address"
        }
      ],
      "name": "PauserAdded",
      "type": "event"
    },
    {
      "anonymous": false,
      "inputs": [
        {
          "indexed": true,
          "name": "account",
          "type": "address"
        }
      ],
      "name": "PauserRemoved",
      "type": "event"
    },
    {
      "anonymous": false,
      "inputs": [
        {
          "indexed": true,
          "name": "from",
          "type": "address"
        },
        {
          "indexed": true,
          "name": "to",
          "type": "address"
        },
        {
          "indexed": false,
          "name": "value",
          "type": "uint256"
        }
      ],
      "name": "Transfer",
      "type": "event"
    },
    {
      "anonymous": false,
      "inputs": [
        {
          "indexed": true,
          "name": "owner",
          "type": "address"
        },
        {
          "indexed": true,
          "name": "spender",
          "type": "address"
        },
        {
          "indexed": false,
          "name": "value",
          "type": "uint256"
        }
      ],
      "name": "Approval",
      "type": "event"
    },
    {
      "constant": false,
      "inputs": [
        {
          "name": "amount",
          "type": "uint256"
        }
      ],
      "name": "burn",
      "outputs": [],
      "payable": false,
      "stateMutability": "nonpayable",
      "type": "function"
    },
    {
      "constant": false,
      "inputs": [
        {
          "name": "account",
          "type": "address"
        },
        {
          "name": "amount",
          "type": "uint256"
        }
      ],
      "name": "burnFrom",
      "outputs": [],
      "payable": false,
      "stateMutability": "nonpayable",
      "type": "function"
    }
  ],
  "bytecode": "0x60806040523480156200001157600080fd5b5060405160408062001ab9833981018060405260408110156200003357600080fd5b508051602091820151604080518082018252600b81527f426563617a20546f6b656e000000000000000000000000000000000000000000818601908152825180840190935260038084527f42435a0000000000000000000000000000000000000000000000000000000000968401969096528151949593949193601292620000bc9290620005a2565b508151620000d2906004906020850190620005a2565b506005805460ff191660ff9290921691909117905550620000fe9050336401000000006200016a810204565b6007805460ff191690556b01750ef6fd5306a2a30000006b01320e8c30e42f72b20000006200013684640100000000620001bc810204565b6200014b84836401000000006200027b810204565b6200016083826401000000006200027b810204565b5050505062000647565b62000185600682640100000000620013926200039c82021704565b604051600160a060020a038216907f6719d08c1888103bea251a4ed56406bd0c3e69723c8a1686e017e7bbe159b6f890600090a250565b620001d03364010000000062000443810204565b15156200026457604080517f08c379a000000000000000000000000000000000000000000000000000000000815260206004820152603060248201527f506175736572526f6c653a2063616c6c657220646f6573206e6f74206861766560448201527f207468652050617573657220726f6c6500000000000000000000000000000000606482015290519081900360840190fd5b62000278816401000000006200016a810204565b50565b600160a060020a0382161515620002f357604080517f08c379a000000000000000000000000000000000000000000000000000000000815260206004820152601f60248201527f45524332303a206d696e7420746f20746865207a65726f206164647265737300604482015290519081900360640190fd5b6002546200031090826401000000006200112e6200046682021704565b600255600160a060020a0382166000908152602081905260409020546200034690826401000000006200112e6200046682021704565b600160a060020a0383166000818152602081815260408083209490945583518581529351929391927fddf252ad1be2c89b69c2b068fc378daa952ba7f163c4a11628f55a4df523b3ef9281900390910190a35050565b620003b18282640100000000620004e2810204565b156200041e57604080517f08c379a000000000000000000000000000000000000000000000000000000000815260206004820152601f60248201527f526f6c65733a206163636f756e7420616c72656164792068617320726f6c6500604482015290519081900360640190fd5b600160a060020a0316600090815260209190915260409020805460ff19166001179055565b60006200046060068364010000000062000c12620004e282021704565b92915050565b600082820183811015620004db57604080517f08c379a000000000000000000000000000000000000000000000000000000000815260206004820152601b60248201527f536166654d6174683a206164646974696f6e206f766572666c6f770000000000604482015290519081900360640190fd5b9392505050565b6000600160a060020a03821615156200058257604080517f08c379a000000000000000000000000000000000000000000000000000000000815260206004820152602260248201527f526f6c65733a206163636f756e7420697320746865207a65726f20616464726560448201527f7373000000000000000000000000000000000000000000000000000000000000606482015290519081900360840190fd5b50600160a060020a03166000908152602091909152604090205460ff1690565b828054600181600116156101000203166002900490600052602060002090601f016020900481019282601f10620005e557805160ff191683800117855562000615565b8280016001018555821562000615579182015b8281111562000615578251825591602001919060010190620005f8565b506200062392915062000627565b5090565b6200064491905b808211156200062357600081556001016200062e565b90565b61146280620006576000396000f3fe608060405260043610610100577c0100000000000000000000000000000000000000000000000000000000600035046306fdde038114610105578063095ea7b31461018f57806318160ddd146101dc57806323b872dd14610203578063313ce5671461024657806339509351146102715780633f4ba83a146102aa57806342966c68146102c157806346fbf68e146102eb5780635c975abb1461031e5780636ef8d66d1461033357806370a082311461034857806379cc67901461037b57806382dc1ec4146103b45780638456cb59146103e757806395d89b41146103fc578063a457c2d714610411578063a9059cbb1461044a578063dd62ed3e14610483575b600080fd5b34801561011157600080fd5b5061011a6104be565b6040805160208082528351818301528351919283929083019185019080838360005b8381101561015457818101518382015260200161013c565b50505050905090810190601f1680156101815780820380516001836020036101000a031916815260200191505b509250505060405180910390f35b34801561019b57600080fd5b506101c8600480360360408110156101b257600080fd5b50600160a060020a038135169060200135610554565b604080519115158252519081900360200190f35b3480156101e857600080fd5b506101f16105b1565b60408051918252519081900360200190f35b34801561020f57600080fd5b506101c86004803603606081101561022657600080fd5b50600160a060020a038135811691602081013590911690604001356105b7565b34801561025257600080fd5b5061025b610616565b6040805160ff9092168252519081900360200190f35b34801561027d57600080fd5b506101c86004803603604081101561029457600080fd5b50600160a060020a03813516906020013561061f565b3480156102b657600080fd5b506102bf610675565b005b3480156102cd57600080fd5b506102bf600480360360208110156102e457600080fd5b5035610795565b3480156102f757600080fd5b506101c86004803603602081101561030e57600080fd5b5035600160a060020a03166107ea565b34801561032a57600080fd5b506101c8610803565b34801561033f57600080fd5b506102bf61080c565b34801561035457600080fd5b506101f16004803603602081101561036b57600080fd5b5035600160a060020a0316610817565b34801561038757600080fd5b506102bf6004803603604081101561039e57600080fd5b50600160a060020a038135169060200135610832565b3480156103c057600080fd5b506102bf600480360360208110156103d757600080fd5b5035600160a060020a0316610889565b3480156103f357600080fd5b506102bf610917565b34801561040857600080fd5b5061011a610a27565b34801561041d57600080fd5b506101c86004803603604081101561043457600080fd5b50600160a060020a038135169060200135610a88565b34801561045657600080fd5b506101c86004803603604081101561046d57600080fd5b50600160a060020a038135169060200135610ade565b34801561048f57600080fd5b506101f1600480360360408110156104a657600080fd5b50600160a060020a0381358116916020013516610b34565b60038054604080516020601f600260001961010060018816150201909516949094049384018190048102820181019092528281526060939092909183018282801561054a5780601f1061051f5761010080835404028352916020019161054a565b820191906000526020600020905b81548152906001019060200180831161052d57829003601f168201915b5050505050905090565b60075460009060ff16156105a0576040805160e560020a62461bcd0281526020600482015260106024820152600080516020611417833981519152604482015290519081900360640190fd5b6105aa8383610b5f565b9392505050565b60025490565b60075460009060ff1615610603576040805160e560020a62461bcd0281526020600482015260106024820152600080516020611417833981519152604482015290519081900360640190fd5b61060e848484610b75565b949350505050565b60055460ff1690565b60075460009060ff161561066b576040805160e560020a62461bcd0281526020600482015260106024820152600080516020611417833981519152604482015290519081900360640190fd5b6105aa8383610bcc565b61067e336107ea565b15156106fa576040805160e560020a62461bcd02815260206004820152603060248201527f506175736572526f6c653a2063616c6c657220646f6573206e6f74206861766560448201527f207468652050617573657220726f6c6500000000000000000000000000000000606482015290519081900360840190fd5b60075460ff161515610756576040805160e560020a62461bcd02815260206004820152601460248201527f5061757361626c653a206e6f7420706175736564000000000000000000000000604482015290519081900360640190fd5b6007805460ff191690556040805133815290517f5db9ee0a495bf2e6ff9c91a7834c1ba4fdd244a5e8aa4e537bd38aeae4b073aa9181900360200190a1565b60075460ff16156107de576040805160e560020a62461bcd0281526020600482015260106024820152600080516020611417833981519152604482015290519081900360640190fd5b6107e781610c08565b50565b60006107fd60068363ffffffff610c1216565b92915050565b60075460ff1690565b61081533610cba565b565b600160a060020a031660009081526020819052604090205490565b60075460ff161561087b576040805160e560020a62461bcd0281526020600482015260106024820152600080516020611417833981519152604482015290519081900360640190fd5b6108858282610d02565b5050565b610892336107ea565b151561090e576040805160e560020a62461bcd02815260206004820152603060248201527f506175736572526f6c653a2063616c6c657220646f6573206e6f74206861766560448201527f207468652050617573657220726f6c6500000000000000000000000000000000606482015290519081900360840190fd5b6107e781610d0c565b610920336107ea565b151561099c576040805160e560020a62461bcd02815260206004820152603060248201527f506175736572526f6c653a2063616c6c657220646f6573206e6f74206861766560448201527f207468652050617573657220726f6c6500000000000000000000000000000000606482015290519081900360840190fd5b60075460ff16156109e5576040805160e560020a62461bcd0281526020600482015260106024820152600080516020611417833981519152604482015290519081900360640190fd5b6007805460ff191660011790556040805133815290517f62e78cea01bee320cd4e420270b5ea74000d11b0c9f74754ebdbfc544b05a2589181900360200190a1565b60048054604080516020601f600260001961010060018816150201909516949094049384018190048102820181019092528281526060939092909183018282801561054a5780601f1061051f5761010080835404028352916020019161054a565b60075460009060ff1615610ad4576040805160e560020a62461bcd0281526020600482015260106024820152600080516020611417833981519152604482015290519081900360640190fd5b6105aa8383610d54565b60075460009060ff1615610b2a576040805160e560020a62461bcd0281526020600482015260106024820152600080516020611417833981519152604482015290519081900360640190fd5b6105aa8383610d90565b600160a060020a03918216600090815260016020908152604080832093909416825291909152205490565b6000610b6c338484610d9d565b50600192915050565b6000610b82848484610f0a565b600160a060020a038416600090815260016020908152604080832033808552925290912054610bc2918691610bbd908663ffffffff6110ce16565b610d9d565b5060019392505050565b336000818152600160209081526040808320600160a060020a03871684529091528120549091610b6c918590610bbd908663ffffffff61112e16565b6107e7338261118b565b6000600160a060020a0382161515610c9a576040805160e560020a62461bcd02815260206004820152602260248201527f526f6c65733a206163636f756e7420697320746865207a65726f20616464726560448201527f7373000000000000000000000000000000000000000000000000000000000000606482015290519081900360840190fd5b50600160a060020a03166000908152602091909152604090205460ff1690565b610ccb60068263ffffffff6112a516565b604051600160a060020a038216907fcd265ebaf09df2871cc7bd4133404a235ba12eff2041bb89d9c714a2621c7c7e90600090a250565b610885828261134d565b610d1d60068263ffffffff61139216565b604051600160a060020a038216907f6719d08c1888103bea251a4ed56406bd0c3e69723c8a1686e017e7bbe159b6f890600090a250565b336000818152600160209081526040808320600160a060020a03871684529091528120549091610b6c918590610bbd908663ffffffff6110ce16565b6000610b6c338484610f0a565b600160a060020a0383161515610e22576040805160e560020a62461bcd028152602060048201526024808201527f45524332303a20617070726f76652066726f6d20746865207a65726f2061646460448201527f7265737300000000000000000000000000000000000000000000000000000000606482015290519081900360840190fd5b600160a060020a0382161515610ea8576040805160e560020a62461bcd02815260206004820152602260248201527f45524332303a20617070726f766520746f20746865207a65726f20616464726560448201527f7373000000000000000000000000000000000000000000000000000000000000606482015290519081900360840190fd5b600160a060020a03808416600081815260016020908152604080832094871680845294825291829020859055815185815291517f8c5be1e5ebec7d5bd14f71427d1e84f3dd0314c0f7b2291e5b200ac8c7c3b9259281900390910190a3505050565b600160a060020a0383161515610f90576040805160e560020a62461bcd02815260206004820152602560248201527f45524332303a207472616e736665722066726f6d20746865207a65726f20616460448201527f6472657373000000000000000000000000000000000000000000000000000000606482015290519081900360840190fd5b600160a060020a0382161515611016576040805160e560020a62461bcd02815260206004820152602360248201527f45524332303a207472616e7366657220746f20746865207a65726f206164647260448201527f6573730000000000000000000000000000000000000000000000000000000000606482015290519081900360840190fd5b600160a060020a03831660009081526020819052604090205461103f908263ffffffff6110ce16565b600160a060020a038085166000908152602081905260408082209390935590841681522054611074908263ffffffff61112e16565b600160a060020a038084166000818152602081815260409182902094909455805185815290519193928716927fddf252ad1be2c89b69c2b068fc378daa952ba7f163c4a11628f55a4df523b3ef92918290030190a3505050565b600082821115611128576040805160e560020a62461bcd02815260206004820152601e60248201527f536166654d6174683a207375627472616374696f6e206f766572666c6f770000604482015290519081900360640190fd5b50900390565b6000828201838110156105aa576040805160e560020a62461bcd02815260206004820152601b60248201527f536166654d6174683a206164646974696f6e206f766572666c6f770000000000604482015290519081900360640190fd5b600160a060020a0382161515611211576040805160e560020a62461bcd02815260206004820152602160248201527f45524332303a206275726e2066726f6d20746865207a65726f2061646472657360448201527f7300000000000000000000000000000000000000000000000000000000000000606482015290519081900360840190fd5b600254611224908263ffffffff6110ce16565b600255600160a060020a038216600090815260208190526040902054611250908263ffffffff6110ce16565b600160a060020a038316600081815260208181526040808320949094558351858152935191937fddf252ad1be2c89b69c2b068fc378daa952ba7f163c4a11628f55a4df523b3ef929081900390910190a35050565b6112af8282610c12565b151561132b576040805160e560020a62461bcd02815260206004820152602160248201527f526f6c65733a206163636f756e7420646f6573206e6f74206861766520726f6c60448201527f6500000000000000000000000000000000000000000000000000000000000000606482015290519081900360840190fd5b600160a060020a0316600090815260209190915260409020805460ff19169055565b611357828261118b565b600160a060020a038216600090815260016020908152604080832033808552925290912054610885918491610bbd908563ffffffff6110ce16565b61139c8282610c12565b156113f1576040805160e560020a62461bcd02815260206004820152601f60248201527f526f6c65733a206163636f756e7420616c72656164792068617320726f6c6500604482015290519081900360640190fd5b600160a060020a0316600090815260209190915260409020805460ff1916600117905556fe5061757361626c653a2070617573656400000000000000000000000000000000a165627a7a7230582008acb31ccc2d15085b802c71d97dd762da09ae7c4ffda1f0abd347c1212727330029",
  "source": "pragma solidity >=0.4.21 <0.6.0;\n\nimport \"@openzeppelin/contracts/token/ERC20/ERC20.sol\";\nimport \"@openzeppelin/contracts/token/ERC20/ERC20Detailed.sol\";\nimport \"@openzeppelin/contracts/token/ERC20/ERC20Burnable.sol\";\nimport \"@openzeppelin/contracts/token/ERC20/ERC20Pausable.sol\";\n\n\ncontract Token is ERC20, ERC20Burnable, ERC20Detailed, ERC20Pausable {\n  constructor(address _contractOwner, address _reserveHolder) ERC20Detailed('Becaz Token', 'BCZ', 18)\n  public{\n    uint256 _circulatingSupply = 451*(10**24);\n    uint256 _reservedSupply = 370*(10**24);\n\n    addPauser(_contractOwner);\n    _mint(_contractOwner, _circulatingSupply);\n    _mint(_reserveHolder, _reservedSupply);\n  }\n\n  function burn(uint256 amount) public whenNotPaused {\n    super.burn(amount);\n  }\n\n  function burnFrom(address account, uint256 amount) public whenNotPaused {\n    super.burnFrom(account, amount);\n  }\n}\n",
  "sourcePath": "/projects/SmartContracts/ERC20/contracts/Token.sol",
  "compiler": {
    "name": "solc",
    "version": "0.5.1+commit.c8a2cb62.Emscripten.clang"
  },
  "schemaVersion": "3.0.16",
  "updatedAt": "2020-01-06T11:59:01.586Z",
  "devdoc": {
    "methods": {
      "allowance(address,address)": {
        "details": "See `IERC20.allowance`."
      },
      "balanceOf(address)": {
        "details": "See `IERC20.balanceOf`."
      },
      "decimals()": {
        "details": "Returns the number of decimals used to get its user representation. For example, if `decimals` equals `2`, a balance of `505` tokens should be displayed to a user as `5,05` (`505 / 10 ** 2`).     * Tokens usually opt for a value of 18, imitating the relationship between Ether and Wei.     * > Note that this information is only used for _display_ purposes: it in no way affects any of the arithmetic of the contract, including `IERC20.balanceOf` and `IERC20.transfer`."
      },
      "name()": {
        "details": "Returns the name of the token."
      },
      "pause()": {
        "details": "Called by a pauser to pause, triggers stopped state."
      },
      "paused()": {
        "details": "Returns true if the contract is paused, and false otherwise."
      },
      "symbol()": {
        "details": "Returns the symbol of the token, usually a shorter version of the name."
      },
      "totalSupply()": {
        "details": "See `IERC20.totalSupply`."
      },
      "unpause()": {
        "details": "Called by a pauser to unpause, returns to normal state."
      }
    }
  },
  "userdoc": {
    "methods": {}
  }
}